{
  "_format": "hh-sol-artifact-1",
  "contractName": "commentRegister",
  "sourceName": "contracts/commentRegister.sol",
  "abi": [
    {
      "inputs": [],
      "stateMutability": "nonpayable",
      "type": "constructor"
    },
    {
      "anonymous": false,
      "inputs": [
        {
          "indexed": true,
          "internalType": "address",
          "name": "from",
          "type": "address"
        },
        {
          "indexed": false,
          "internalType": "uint256",
          "name": "timestamp",
          "type": "uint256"
        },
        {
          "indexed": false,
          "internalType": "string",
          "name": "message",
          "type": "string"
        }
      ],
      "name": "NewComment",
      "type": "event"
    },
    {
      "inputs": [],
      "name": "getAllComments",
      "outputs": [
        {
          "components": [
            {
              "internalType": "address",
              "name": "user",
              "type": "address"
            },
            {
              "internalType": "string",
              "name": "message",
              "type": "string"
            },
            {
              "internalType": "uint256",
              "name": "timestamp",
              "type": "uint256"
            }
          ],
          "internalType": "struct commentRegister.Comment[]",
          "name": "",
          "type": "tuple[]"
        }
      ],
      "stateMutability": "view",
      "type": "function"
    },
    {
      "inputs": [
        {
          "internalType": "string",
          "name": "_message",
          "type": "string"
        }
      ],
      "name": "register",
      "outputs": [],
      "stateMutability": "nonpayable",
      "type": "function"
    }
  ],
  "bytecode": "0x608060405234801561001057600080fd5b506100596040518060400160405280601981526020017f4920414d20534d41525420434f4e54524143542e20504f472e0000000000000081525061005e60201b6103251760201c565b6101e1565b6100fa81604051602401610072919061015f565b6040516020818303038152906040527f41304fac000000000000000000000000000000000000000000000000000000007bffffffffffffffffffffffffffffffffffffffffffffffffffffffff19166020820180517bffffffffffffffffffffffffffffffffffffffffffffffffffffffff83818316178352505050506100fd60201b60201c565b50565b60008151905060006a636f6e736f6c652e6c6f679050602083016000808483855afa5050505050565b600061013182610181565b61013b818561018c565b935061014b81856020860161019d565b610154816101d0565b840191505092915050565b600060208201905081810360008301526101798184610126565b905092915050565b600081519050919050565b600082825260208201905092915050565b60005b838110156101bb5780820151818401526020810190506101a0565b838111156101ca576000848401525b50505050565b6000601f19601f8301169050919050565b610a2e806101f06000396000f3fe608060405234801561001057600080fd5b50600436106100365760003560e01c8063104409041461003b578063f2c298be14610059575b600080fd5b610043610075565b6040516100509190610759565b60405180910390f35b610073600480360381019061006e9190610591565b6101c6565b005b60606000805480602002602001604051908101604052809291908181526020016000905b828210156101bd57838290600052602060002090600302016040518060600160405290816000820160009054906101000a900473ffffffffffffffffffffffffffffffffffffffff1673ffffffffffffffffffffffffffffffffffffffff1673ffffffffffffffffffffffffffffffffffffffff16815260200160018201805461012290610957565b80601f016020809104026020016040519081016040528092919081815260200182805461014e90610957565b801561019b5780601f106101705761010080835404028352916020019161019b565b820191906000526020600020905b81548152906001019060200180831161017e57829003601f168201915b5050505050815260200160028201548152505081526020019060010190610099565b50505050905090565b6102066040518060400160405280601581526020017f25732073656e7420772f206d657373616765202573000000000000000000000081525033836103be565b600060405180606001604052803373ffffffffffffffffffffffffffffffffffffffff16815260200183815260200142815250908060018154018082558091505060019003906000526020600020906003020160009091909190915060008201518160000160006101000a81548173ffffffffffffffffffffffffffffffffffffffff021916908373ffffffffffffffffffffffffffffffffffffffff16021790555060208201518160010190805190602001906102c5929190610486565b506040820151816002015550503373ffffffffffffffffffffffffffffffffffffffff167f79c996438e63fb299e1de20a8641457dfa876b1f9fee1330c25fe9885f1c4fed428360405161031a9291906107e2565b60405180910390a250565b6103bb81604051602401610339919061077b565b6040516020818303038152906040527f41304fac000000000000000000000000000000000000000000000000000000007bffffffffffffffffffffffffffffffffffffffffffffffffffffffff19166020820180517bffffffffffffffffffffffffffffffffffffffffffffffffffffffff838183161783525050505061045d565b50565b6104588383836040516024016103d69392919061079d565b6040516020818303038152906040527fe0e9ad4f000000000000000000000000000000000000000000000000000000007bffffffffffffffffffffffffffffffffffffffffffffffffffffffff19166020820180517bffffffffffffffffffffffffffffffffffffffffffffffffffffffff838183161783525050505061045d565b505050565b60008151905060006a636f6e736f6c652e6c6f679050602083016000808483855afa5050505050565b82805461049290610957565b90600052602060002090601f0160209004810192826104b457600085556104fb565b82601f106104cd57805160ff19168380011785556104fb565b828001600101855582156104fb579182015b828111156104fa5782518255916020019190600101906104df565b5b509050610508919061050c565b5090565b5b8082111561052557600081600090555060010161050d565b5090565b600061053c61053784610843565b610812565b90508281526020810184848401111561055457600080fd5b61055f848285610915565b509392505050565b600082601f83011261057857600080fd5b8135610588848260208601610529565b91505092915050565b6000602082840312156105a357600080fd5b600082013567ffffffffffffffff8111156105bd57600080fd5b6105c984828501610567565b91505092915050565b60006105de83836106eb565b905092915050565b6105ef816108d9565b82525050565b6105fe816108d9565b82525050565b600061060f82610883565b61061981856108a6565b93508360208202850161062b85610873565b8060005b85811015610667578484038952815161064885826105d2565b945061065383610899565b925060208a0199505060018101905061062f565b50829750879550505050505092915050565b60006106848261088e565b61068e81856108b7565b935061069e818560208601610924565b6106a7816109e7565b840191505092915050565b60006106bd8261088e565b6106c781856108c8565b93506106d7818560208601610924565b6106e0816109e7565b840191505092915050565b600060608301600083015161070360008601826105e6565b506020830151848203602086015261071b8282610679565b9150506040830151610730604086018261073b565b508091505092915050565b6107448161090b565b82525050565b6107538161090b565b82525050565b600060208201905081810360008301526107738184610604565b905092915050565b6000602082019050818103600083015261079581846106b2565b905092915050565b600060608201905081810360008301526107b781866106b2565b90506107c660208301856105f5565b81810360408301526107d881846106b2565b9050949350505050565b60006040820190506107f7600083018561074a565b818103602083015261080981846106b2565b90509392505050565b6000604051905081810181811067ffffffffffffffff82111715610839576108386109b8565b5b8060405250919050565b600067ffffffffffffffff82111561085e5761085d6109b8565b5b601f19601f8301169050602081019050919050565b6000819050602082019050919050565b600081519050919050565b600081519050919050565b6000602082019050919050565b600082825260208201905092915050565b600082825260208201905092915050565b600082825260208201905092915050565b60006108e4826108eb565b9050919050565b600073ffffffffffffffffffffffffffffffffffffffff82169050919050565b6000819050919050565b82818337600083830152505050565b60005b83811015610942578082015181840152602081019050610927565b83811115610951576000848401525b50505050565b6000600282049050600182168061096f57607f821691505b6020821081141561098357610982610989565b5b50919050565b7f4e487b7100000000000000000000000000000000000000000000000000000000600052602260045260246000fd5b7f4e487b7100000000000000000000000000000000000000000000000000000000600052604160045260246000fd5b6000601f19601f830116905091905056fea2646970667358221220f4207206e0c14fb4bc0ab17ca86eb90697dc6da65b32b99d39ea526438ddd47f64736f6c63430008000033",
  "linkReferences": {},
  "deployedLinkReferences": {}
}