{
  "_format": "hh-sol-artifact-1",
  "contractName": "MyZombieNFT",
  "sourceName": "contracts/MyZombieNFT.sol",
  "abi": [
    {
      "inputs": [
        {
          "internalType": "uint256",
          "name": "TOTAL_MINT_COUNT",
          "type": "uint256"
        }
      ],
      "stateMutability": "nonpayable",
      "type": "constructor"
    },
    {
      "anonymous": false,
      "inputs": [
        {
          "indexed": true,
          "internalType": "address",
          "name": "owner",
          "type": "address"
        },
        {
          "indexed": true,
          "internalType": "address",
          "name": "approved",
          "type": "address"
        },
        {
          "indexed": true,
          "internalType": "uint256",
          "name": "tokenId",
          "type": "uint256"
        }
      ],
      "name": "Approval",
      "type": "event"
    },
    {
      "anonymous": false,
      "inputs": [
        {
          "indexed": true,
          "internalType": "address",
          "name": "owner",
          "type": "address"
        },
        {
          "indexed": true,
          "internalType": "address",
          "name": "operator",
          "type": "address"
        },
        {
          "indexed": false,
          "internalType": "bool",
          "name": "approved",
          "type": "bool"
        }
      ],
      "name": "ApprovalForAll",
      "type": "event"
    },
    {
      "anonymous": false,
      "inputs": [
        {
          "indexed": false,
          "internalType": "address",
          "name": "sender",
          "type": "address"
        },
        {
          "indexed": false,
          "internalType": "uint256",
          "name": "tokenId",
          "type": "uint256"
        }
      ],
      "name": "NewZombieNFTMinted",
      "type": "event"
    },
    {
      "anonymous": false,
      "inputs": [
        {
          "indexed": true,
          "internalType": "address",
          "name": "from",
          "type": "address"
        },
        {
          "indexed": true,
          "internalType": "address",
          "name": "to",
          "type": "address"
        },
        {
          "indexed": true,
          "internalType": "uint256",
          "name": "tokenId",
          "type": "uint256"
        }
      ],
      "name": "Transfer",
      "type": "event"
    },
    {
      "inputs": [
        {
          "internalType": "address",
          "name": "to",
          "type": "address"
        },
        {
          "internalType": "uint256",
          "name": "tokenId",
          "type": "uint256"
        }
      ],
      "name": "approve",
      "outputs": [],
      "stateMutability": "nonpayable",
      "type": "function"
    },
    {
      "inputs": [
        {
          "internalType": "address",
          "name": "owner",
          "type": "address"
        }
      ],
      "name": "balanceOf",
      "outputs": [
        {
          "internalType": "uint256",
          "name": "",
          "type": "uint256"
        }
      ],
      "stateMutability": "view",
      "type": "function"
    },
    {
      "inputs": [
        {
          "internalType": "uint256",
          "name": "tokenId",
          "type": "uint256"
        }
      ],
      "name": "getApproved",
      "outputs": [
        {
          "internalType": "address",
          "name": "",
          "type": "address"
        }
      ],
      "stateMutability": "view",
      "type": "function"
    },
    {
      "inputs": [
        {
          "internalType": "address",
          "name": "owner",
          "type": "address"
        },
        {
          "internalType": "address",
          "name": "operator",
          "type": "address"
        }
      ],
      "name": "isApprovedForAll",
      "outputs": [
        {
          "internalType": "bool",
          "name": "",
          "type": "bool"
        }
      ],
      "stateMutability": "view",
      "type": "function"
    },
    {
      "inputs": [],
      "name": "makeAnZombieNFT",
      "outputs": [],
      "stateMutability": "nonpayable",
      "type": "function"
    },
    {
      "inputs": [],
      "name": "name",
      "outputs": [
        {
          "internalType": "string",
          "name": "",
          "type": "string"
        }
      ],
      "stateMutability": "view",
      "type": "function"
    },
    {
      "inputs": [
        {
          "internalType": "uint256",
          "name": "tokenId",
          "type": "uint256"
        }
      ],
      "name": "ownerOf",
      "outputs": [
        {
          "internalType": "address",
          "name": "",
          "type": "address"
        }
      ],
      "stateMutability": "view",
      "type": "function"
    },
    {
      "inputs": [
        {
          "internalType": "address",
          "name": "from",
          "type": "address"
        },
        {
          "internalType": "address",
          "name": "to",
          "type": "address"
        },
        {
          "internalType": "uint256",
          "name": "tokenId",
          "type": "uint256"
        }
      ],
      "name": "safeTransferFrom",
      "outputs": [],
      "stateMutability": "nonpayable",
      "type": "function"
    },
    {
      "inputs": [
        {
          "internalType": "address",
          "name": "from",
          "type": "address"
        },
        {
          "internalType": "address",
          "name": "to",
          "type": "address"
        },
        {
          "internalType": "uint256",
          "name": "tokenId",
          "type": "uint256"
        },
        {
          "internalType": "bytes",
          "name": "data",
          "type": "bytes"
        }
      ],
      "name": "safeTransferFrom",
      "outputs": [],
      "stateMutability": "nonpayable",
      "type": "function"
    },
    {
      "inputs": [
        {
          "internalType": "address",
          "name": "operator",
          "type": "address"
        },
        {
          "internalType": "bool",
          "name": "approved",
          "type": "bool"
        }
      ],
      "name": "setApprovalForAll",
      "outputs": [],
      "stateMutability": "nonpayable",
      "type": "function"
    },
    {
      "inputs": [
        {
          "internalType": "bytes4",
          "name": "interfaceId",
          "type": "bytes4"
        }
      ],
      "name": "supportsInterface",
      "outputs": [
        {
          "internalType": "bool",
          "name": "",
          "type": "bool"
        }
      ],
      "stateMutability": "view",
      "type": "function"
    },
    {
      "inputs": [],
      "name": "symbol",
      "outputs": [
        {
          "internalType": "string",
          "name": "",
          "type": "string"
        }
      ],
      "stateMutability": "view",
      "type": "function"
    },
    {
      "inputs": [
        {
          "internalType": "uint256",
          "name": "tokenId",
          "type": "uint256"
        }
      ],
      "name": "tokenURI",
      "outputs": [
        {
          "internalType": "string",
          "name": "",
          "type": "string"
        }
      ],
      "stateMutability": "view",
      "type": "function"
    },
    {
      "inputs": [],
      "name": "totalMintCount",
      "outputs": [
        {
          "internalType": "uint256",
          "name": "",
          "type": "uint256"
        }
      ],
      "stateMutability": "view",
      "type": "function"
    },
    {
      "inputs": [
        {
          "internalType": "address",
          "name": "from",
          "type": "address"
        },
        {
          "internalType": "address",
          "name": "to",
          "type": "address"
        },
        {
          "internalType": "uint256",
          "name": "tokenId",
          "type": "uint256"
        }
      ],
      "name": "transferFrom",
      "outputs": [],
      "stateMutability": "nonpayable",
      "type": "function"
    }
  ],
  "bytecode": "0x60806040523480156200001157600080fd5b5060405162002f9438038062002f948339818101604052810190620000379190620002c3565b6040518060400160405280600c81526020017f416d6e5a6f6d6269654e465400000000000000000000000000000000000000008152506040518060400160405280600381526020017f5a4d4200000000000000000000000000000000000000000000000000000000008152508160009080519060200190620000bb929190620001fc565b508060019080519060200190620000d4929190620001fc565b50505080600881905550620001296040518060400160405280601e81526020017f54686973206973206d79204e465420636f6e74726163742e20576f61682100008152506200013060201b62000b651760201c565b5062000440565b620001d08160405160240162000147919062000330565b6040516020818303038152906040527f41304fac000000000000000000000000000000000000000000000000000000007bffffffffffffffffffffffffffffffffffffffffffffffffffffffff19166020820180517bffffffffffffffffffffffffffffffffffffffffffffffffffffffff8381831617835250505050620001d360201b60201c565b50565b60008151905060006a636f6e736f6c652e6c6f679050602083016000808483855afa5050505050565b8280546200020a90620003b0565b90600052602060002090601f0160209004810192826200022e57600085556200027a565b82601f106200024957805160ff19168380011785556200027a565b828001600101855582156200027a579182015b82811115620002795782518255916020019190600101906200025c565b5b5090506200028991906200028d565b5090565b5b80821115620002a85760008160009055506001016200028e565b5090565b600081519050620002bd8162000426565b92915050565b600060208284031215620002d657600080fd5b6000620002e684828501620002ac565b91505092915050565b6000620002fc8262000354565b6200030881856200035f565b93506200031a8185602086016200037a565b620003258162000415565b840191505092915050565b600060208201905081810360008301526200034c8184620002ef565b905092915050565b600081519050919050565b600082825260208201905092915050565b6000819050919050565b60005b838110156200039a5780820151818401526020810190506200037d565b83811115620003aa576000848401525b50505050565b60006002820490506001821680620003c957607f821691505b60208210811415620003e057620003df620003e6565b5b50919050565b7f4e487b7100000000000000000000000000000000000000000000000000000000600052602260045260246000fd5b6000601f19601f8301169050919050565b620004318162000370565b81146200043d57600080fd5b50565b612b4480620004506000396000f3fe608060405234801561001057600080fd5b50600436106100f55760003560e01c80636352211e11610097578063a22cb46511610066578063a22cb46514610272578063b88d4fde1461028e578063c87b56dd146102aa578063e985e9c5146102da576100f5565b80636352211e146101d657806370a08231146102065780637a0d23021461023657806395d89b4114610254576100f5565b8063095ea7b3116100d3578063095ea7b31461017857806323b872dd1461019457806342842e0e146101b05780634f891837146101cc576100f5565b806301ffc9a7146100fa57806306fdde031461012a578063081812fc14610148575b600080fd5b610114600480360381019061010f9190611d63565b61030a565b6040516101219190612129565b60405180910390f35b6101326103ec565b60405161013f9190612144565b60405180910390f35b610162600480360381019061015d9190611db5565b61047e565b60405161016f9190612099565b60405180910390f35b610192600480360381019061018d9190611d27565b6104c4565b005b6101ae60048036038101906101a99190611c21565b6105dc565b005b6101ca60048036038101906101c59190611c21565b61063c565b005b6101d461065c565b005b6101f060048036038101906101eb9190611db5565b610744565b6040516101fd9190612099565b60405180910390f35b610220600480360381019061021b9190611bbc565b6107f6565b60405161022d9190612344565b60405180910390f35b61023e6108ae565b60405161024b9190612344565b60405180910390f35b61025c6108b4565b6040516102699190612144565b60405180910390f35b61028c60048036038101906102879190611ceb565b610946565b005b6102a860048036038101906102a39190611c70565b61095c565b005b6102c460048036038101906102bf9190611db5565b6109be565b6040516102d19190612144565b60405180910390f35b6102f460048036038101906102ef9190611be5565b610ad1565b6040516103019190612129565b60405180910390f35b60007f80ac58cd000000000000000000000000000000000000000000000000000000007bffffffffffffffffffffffffffffffffffffffffffffffffffffffff1916827bffffffffffffffffffffffffffffffffffffffffffffffffffffffff191614806103d557507f5b5e139f000000000000000000000000000000000000000000000000000000007bffffffffffffffffffffffffffffffffffffffffffffffffffffffff1916827bffffffffffffffffffffffffffffffffffffffffffffffffffffffff1916145b806103e557506103e482610bfe565b5b9050919050565b6060600080546103fb90612569565b80601f016020809104026020016040519081016040528092919081815260200182805461042790612569565b80156104745780601f1061044957610100808354040283529160200191610474565b820191906000526020600020905b81548152906001019060200180831161045757829003601f168201915b5050505050905090565b600061048982610c68565b6004600083815260200190815260200160002060009054906101000a900473ffffffffffffffffffffffffffffffffffffffff169050919050565b60006104cf82610744565b90508073ffffffffffffffffffffffffffffffffffffffff168373ffffffffffffffffffffffffffffffffffffffff161415610540576040517f08c379a000000000000000000000000000000000000000000000000000000000815260040161053790612304565b60405180910390fd5b8073ffffffffffffffffffffffffffffffffffffffff1661055f610cb3565b73ffffffffffffffffffffffffffffffffffffffff16148061058e575061058d81610588610cb3565b610ad1565b5b6105cd576040517f08c379a00000000000000000000000000000000000000000000000000000000081526004016105c4906122a4565b60405180910390fd5b6105d78383610cbb565b505050565b6105ed6105e7610cb3565b82610d74565b61062c576040517f08c379a000000000000000000000000000000000000000000000000000000000815260040161062390612324565b60405180910390fd5b610637838383610e09565b505050565b6106578383836040518060200160405280600081525061095c565b505050565b60006106686007611070565b90506008548111156106af576040517f08c379a00000000000000000000000000000000000000000000000000000000081526004016106a6906121a4565b60405180910390fd5b6106b9338261107e565b6106db81604051806060016040528060358152602001612ada6035913961109c565b6106e56007611110565b610708604051806060016040528060258152602001612ab5602591398233611126565b7f74ca32fce33810fbee92c58d701c9e8cd1dc141fe39b5446fc120391129126e13382604051610739929190612100565b60405180910390a150565b6000806002600084815260200190815260200160002060009054906101000a900473ffffffffffffffffffffffffffffffffffffffff169050600073ffffffffffffffffffffffffffffffffffffffff168173ffffffffffffffffffffffffffffffffffffffff1614156107ed576040517f08c379a00000000000000000000000000000000000000000000000000000000081526004016107e4906122e4565b60405180910390fd5b80915050919050565b60008073ffffffffffffffffffffffffffffffffffffffff168273ffffffffffffffffffffffffffffffffffffffff161415610867576040517f08c379a000000000000000000000000000000000000000000000000000000000815260040161085e90612264565b60405180910390fd5b600360008373ffffffffffffffffffffffffffffffffffffffff1673ffffffffffffffffffffffffffffffffffffffff168152602001908152602001600020549050919050565b60085481565b6060600180546108c390612569565b80601f01602080910402602001604051908101604052809291908181526020018280546108ef90612569565b801561093c5780601f106109115761010080835404028352916020019161093c565b820191906000526020600020905b81548152906001019060200180831161091f57829003601f168201915b5050505050905090565b610958610951610cb3565b83836111c5565b5050565b61096d610967610cb3565b83610d74565b6109ac576040517f08c379a00000000000000000000000000000000000000000000000000000000081526004016109a390612324565b60405180910390fd5b6109b884848484611332565b50505050565b60606109c982610c68565b60006006600084815260200190815260200160002080546109e990612569565b80601f0160208091040260200160405190810160405280929190818152602001828054610a1590612569565b8015610a625780601f10610a3757610100808354040283529160200191610a62565b820191906000526020600020905b815481529060010190602001808311610a4557829003601f168201915b505050505090506000610a7361138e565b9050600081511415610a89578192505050610acc565b600082511115610abe578082604051602001610aa6929190612075565b60405160208183030381529060405292505050610acc565b610ac7846113a5565b925050505b919050565b6000600560008473ffffffffffffffffffffffffffffffffffffffff1673ffffffffffffffffffffffffffffffffffffffff16815260200190815260200160002060008373ffffffffffffffffffffffffffffffffffffffff1673ffffffffffffffffffffffffffffffffffffffff16815260200190815260200160002060009054906101000a900460ff16905092915050565b610bfb81604051602401610b799190612144565b6040516020818303038152906040527f41304fac000000000000000000000000000000000000000000000000000000007bffffffffffffffffffffffffffffffffffffffffffffffffffffffff19166020820180517bffffffffffffffffffffffffffffffffffffffffffffffffffffffff838183161783525050505061140d565b50565b60007f01ffc9a7000000000000000000000000000000000000000000000000000000007bffffffffffffffffffffffffffffffffffffffffffffffffffffffff1916827bffffffffffffffffffffffffffffffffffffffffffffffffffffffff1916149050919050565b610c7181611436565b610cb0576040517f08c379a0000000000000000000000000000000000000000000000000000000008152600401610ca7906122e4565b60405180910390fd5b50565b600033905090565b816004600083815260200190815260200160002060006101000a81548173ffffffffffffffffffffffffffffffffffffffff021916908373ffffffffffffffffffffffffffffffffffffffff160217905550808273ffffffffffffffffffffffffffffffffffffffff16610d2e83610744565b73ffffffffffffffffffffffffffffffffffffffff167f8c5be1e5ebec7d5bd14f71427d1e84f3dd0314c0f7b2291e5b200ac8c7c3b92560405160405180910390a45050565b600080610d8083610744565b90508073ffffffffffffffffffffffffffffffffffffffff168473ffffffffffffffffffffffffffffffffffffffff161480610dc25750610dc18185610ad1565b5b80610e0057508373ffffffffffffffffffffffffffffffffffffffff16610de88461047e565b73ffffffffffffffffffffffffffffffffffffffff16145b91505092915050565b8273ffffffffffffffffffffffffffffffffffffffff16610e2982610744565b73ffffffffffffffffffffffffffffffffffffffff1614610e7f576040517f08c379a0000000000000000000000000000000000000000000000000000000008152600401610e76906121e4565b60405180910390fd5b600073ffffffffffffffffffffffffffffffffffffffff168273ffffffffffffffffffffffffffffffffffffffff161415610eef576040517f08c379a0000000000000000000000000000000000000000000000000000000008152600401610ee690612224565b60405180910390fd5b610efa8383836114a2565b610f05600082610cbb565b6001600360008573ffffffffffffffffffffffffffffffffffffffff1673ffffffffffffffffffffffffffffffffffffffff1681526020019081526020016000206000828254610f55919061247f565b925050819055506001600360008473ffffffffffffffffffffffffffffffffffffffff1673ffffffffffffffffffffffffffffffffffffffff1681526020019081526020016000206000828254610fac91906123f8565b92505081905550816002600083815260200190815260200160002060006101000a81548173ffffffffffffffffffffffffffffffffffffffff021916908373ffffffffffffffffffffffffffffffffffffffff160217905550808273ffffffffffffffffffffffffffffffffffffffff168473ffffffffffffffffffffffffffffffffffffffff167fddf252ad1be2c89b69c2b068fc378daa952ba7f163c4a11628f55a4df523b3ef60405160405180910390a461106b8383836114a7565b505050565b600081600001549050919050565b6110988282604051806020016040528060008152506114ac565b5050565b6110a582611436565b6110e4576040517f08c379a00000000000000000000000000000000000000000000000000000000081526004016110db90612284565b60405180910390fd5b8060066000848152602001908152602001600020908051906020019061110b929190611a48565b505050565b6001816000016000828254019250508190555050565b6111c083838360405160240161113e93929190612166565b6040516020818303038152906040527fe3849f79000000000000000000000000000000000000000000000000000000007bffffffffffffffffffffffffffffffffffffffffffffffffffffffff19166020820180517bffffffffffffffffffffffffffffffffffffffffffffffffffffffff838183161783525050505061140d565b505050565b8173ffffffffffffffffffffffffffffffffffffffff168373ffffffffffffffffffffffffffffffffffffffff161415611234576040517f08c379a000000000000000000000000000000000000000000000000000000000815260040161122b90612244565b60405180910390fd5b80600560008573ffffffffffffffffffffffffffffffffffffffff1673ffffffffffffffffffffffffffffffffffffffff16815260200190815260200160002060008473ffffffffffffffffffffffffffffffffffffffff1673ffffffffffffffffffffffffffffffffffffffff16815260200190815260200160002060006101000a81548160ff0219169083151502179055508173ffffffffffffffffffffffffffffffffffffffff168373ffffffffffffffffffffffffffffffffffffffff167f17307eab39ab6107e8899845ad3d59bd9653f200f220920489ca2b5937696c31836040516113259190612129565b60405180910390a3505050565b61133d848484610e09565b61134984848484611507565b611388576040517f08c379a000000000000000000000000000000000000000000000000000000000815260040161137f906121c4565b60405180910390fd5b50505050565b606060405180602001604052806000815250905090565b60606113b082610c68565b60006113ba61138e565b905060008151116113da5760405180602001604052806000815250611405565b806113e48461169e565b6040516020016113f5929190612075565b6040516020818303038152906040525b915050919050565b60008151905060006a636f6e736f6c652e6c6f679050602083016000808483855afa5050505050565b60008073ffffffffffffffffffffffffffffffffffffffff166002600084815260200190815260200160002060009054906101000a900473ffffffffffffffffffffffffffffffffffffffff1673ffffffffffffffffffffffffffffffffffffffff1614159050919050565b505050565b505050565b6114b6838361184b565b6114c36000848484611507565b611502576040517f08c379a00000000000000000000000000000000000000000000000000000000081526004016114f9906121c4565b60405180910390fd5b505050565b60006115288473ffffffffffffffffffffffffffffffffffffffff16611a25565b15611691578373ffffffffffffffffffffffffffffffffffffffff1663150b7a02611551610cb3565b8786866040518563ffffffff1660e01b815260040161157394939291906120b4565b602060405180830381600087803b15801561158d57600080fd5b505af19250505080156115be57506040513d601f19601f820116820180604052508101906115bb9190611d8c565b60015b611641573d80600081146115ee576040519150601f19603f3d011682016040523d82523d6000602084013e6115f3565b606091505b50600081511415611639576040517f08c379a0000000000000000000000000000000000000000000000000000000008152600401611630906121c4565b60405180910390fd5b805181602001fd5b63150b7a0260e01b7bffffffffffffffffffffffffffffffffffffffffffffffffffffffff1916817bffffffffffffffffffffffffffffffffffffffffffffffffffffffff191614915050611696565b600190505b949350505050565b606060008214156116e6576040518060400160405280600181526020017f30000000000000000000000000000000000000000000000000000000000000008152509050611846565b600082905060005b60008214611718578080611701906125cc565b915050600a82611711919061244e565b91506116ee565b60008167ffffffffffffffff81111561175a577f4e487b7100000000000000000000000000000000000000000000000000000000600052604160045260246000fd5b6040519080825280601f01601f19166020018201604052801561178c5781602001600182028036833780820191505090505b5090505b6000851461183f576001826117a5919061247f565b9150600a856117b49190612615565b60306117c091906123f8565b60f81b8183815181106117fc577f4e487b7100000000000000000000000000000000000000000000000000000000600052603260045260246000fd5b60200101907effffffffffffffffffffffffffffffffffffffffffffffffffffffffffffff1916908160001a905350600a85611838919061244e565b9450611790565b8093505050505b919050565b600073ffffffffffffffffffffffffffffffffffffffff168273ffffffffffffffffffffffffffffffffffffffff1614156118bb576040517f08c379a00000000000000000000000000000000000000000000000000000000081526004016118b2906122c4565b60405180910390fd5b6118c481611436565b15611904576040517f08c379a00000000000000000000000000000000000000000000000000000000081526004016118fb90612204565b60405180910390fd5b611910600083836114a2565b6001600360008473ffffffffffffffffffffffffffffffffffffffff1673ffffffffffffffffffffffffffffffffffffffff168152602001908152602001600020600082825461196091906123f8565b92505081905550816002600083815260200190815260200160002060006101000a81548173ffffffffffffffffffffffffffffffffffffffff021916908373ffffffffffffffffffffffffffffffffffffffff160217905550808273ffffffffffffffffffffffffffffffffffffffff16600073ffffffffffffffffffffffffffffffffffffffff167fddf252ad1be2c89b69c2b068fc378daa952ba7f163c4a11628f55a4df523b3ef60405160405180910390a4611a21600083836114a7565b5050565b6000808273ffffffffffffffffffffffffffffffffffffffff163b119050919050565b828054611a5490612569565b90600052602060002090601f016020900481019282611a765760008555611abd565b82601f10611a8f57805160ff1916838001178555611abd565b82800160010185558215611abd579182015b82811115611abc578251825591602001919060010190611aa1565b5b509050611aca9190611ace565b5090565b5b80821115611ae7576000816000905550600101611acf565b5090565b6000611afe611af984612384565b61235f565b905082815260208101848484011115611b1657600080fd5b611b21848285612527565b509392505050565b600081359050611b3881612a58565b92915050565b600081359050611b4d81612a6f565b92915050565b600081359050611b6281612a86565b92915050565b600081519050611b7781612a86565b92915050565b600082601f830112611b8e57600080fd5b8135611b9e848260208601611aeb565b91505092915050565b600081359050611bb681612a9d565b92915050565b600060208284031215611bce57600080fd5b6000611bdc84828501611b29565b91505092915050565b60008060408385031215611bf857600080fd5b6000611c0685828601611b29565b9250506020611c1785828601611b29565b9150509250929050565b600080600060608486031215611c3657600080fd5b6000611c4486828701611b29565b9350506020611c5586828701611b29565b9250506040611c6686828701611ba7565b9150509250925092565b60008060008060808587031215611c8657600080fd5b6000611c9487828801611b29565b9450506020611ca587828801611b29565b9350506040611cb687828801611ba7565b925050606085013567ffffffffffffffff811115611cd357600080fd5b611cdf87828801611b7d565b91505092959194509250565b60008060408385031215611cfe57600080fd5b6000611d0c85828601611b29565b9250506020611d1d85828601611b3e565b9150509250929050565b60008060408385031215611d3a57600080fd5b6000611d4885828601611b29565b9250506020611d5985828601611ba7565b9150509250929050565b600060208284031215611d7557600080fd5b6000611d8384828501611b53565b91505092915050565b600060208284031215611d9e57600080fd5b6000611dac84828501611b68565b91505092915050565b600060208284031215611dc757600080fd5b6000611dd584828501611ba7565b91505092915050565b611de7816124b3565b82525050565b611df6816124c5565b82525050565b6000611e07826123b5565b611e1181856123cb565b9350611e21818560208601612536565b611e2a81612702565b840191505092915050565b6000611e40826123c0565b611e4a81856123dc565b9350611e5a818560208601612536565b611e6381612702565b840191505092915050565b6000611e79826123c0565b611e8381856123ed565b9350611e93818560208601612536565b80840191505092915050565b6000611eac6020836123dc565b9150611eb782612713565b602082019050919050565b6000611ecf6032836123dc565b9150611eda8261273c565b604082019050919050565b6000611ef26025836123dc565b9150611efd8261278b565b604082019050919050565b6000611f15601c836123dc565b9150611f20826127da565b602082019050919050565b6000611f386024836123dc565b9150611f4382612803565b604082019050919050565b6000611f5b6019836123dc565b9150611f6682612852565b602082019050919050565b6000611f7e6029836123dc565b9150611f898261287b565b604082019050919050565b6000611fa1602e836123dc565b9150611fac826128ca565b604082019050919050565b6000611fc4603e836123dc565b9150611fcf82612919565b604082019050919050565b6000611fe76020836123dc565b9150611ff282612968565b602082019050919050565b600061200a6018836123dc565b915061201582612991565b602082019050919050565b600061202d6021836123dc565b9150612038826129ba565b604082019050919050565b6000612050602e836123dc565b915061205b82612a09565b604082019050919050565b61206f8161251d565b82525050565b60006120818285611e6e565b915061208d8284611e6e565b91508190509392505050565b60006020820190506120ae6000830184611dde565b92915050565b60006080820190506120c96000830187611dde565b6120d66020830186611dde565b6120e36040830185612066565b81810360608301526120f58184611dfc565b905095945050505050565b60006040820190506121156000830185611dde565b6121226020830184612066565b9392505050565b600060208201905061213e6000830184611ded565b92915050565b6000602082019050818103600083015261215e8184611e35565b905092915050565b600060608201905081810360008301526121808186611e35565b905061218f6020830185612066565b61219c6040830184611dde565b949350505050565b600060208201905081810360008301526121bd81611e9f565b9050919050565b600060208201905081810360008301526121dd81611ec2565b9050919050565b600060208201905081810360008301526121fd81611ee5565b9050919050565b6000602082019050818103600083015261221d81611f08565b9050919050565b6000602082019050818103600083015261223d81611f2b565b9050919050565b6000602082019050818103600083015261225d81611f4e565b9050919050565b6000602082019050818103600083015261227d81611f71565b9050919050565b6000602082019050818103600083015261229d81611f94565b9050919050565b600060208201905081810360008301526122bd81611fb7565b9050919050565b600060208201905081810360008301526122dd81611fda565b9050919050565b600060208201905081810360008301526122fd81611ffd565b9050919050565b6000602082019050818103600083015261231d81612020565b9050919050565b6000602082019050818103600083015261233d81612043565b9050919050565b60006020820190506123596000830184612066565b92915050565b600061236961237a565b9050612375828261259b565b919050565b6000604051905090565b600067ffffffffffffffff82111561239f5761239e6126d3565b5b6123a882612702565b9050602081019050919050565b600081519050919050565b600081519050919050565b600082825260208201905092915050565b600082825260208201905092915050565b600081905092915050565b60006124038261251d565b915061240e8361251d565b9250827fffffffffffffffffffffffffffffffffffffffffffffffffffffffffffffffff0382111561244357612442612646565b5b828201905092915050565b60006124598261251d565b91506124648361251d565b92508261247457612473612675565b5b828204905092915050565b600061248a8261251d565b91506124958361251d565b9250828210156124a8576124a7612646565b5b828203905092915050565b60006124be826124fd565b9050919050565b60008115159050919050565b60007fffffffff0000000000000000000000000000000000000000000000000000000082169050919050565b600073ffffffffffffffffffffffffffffffffffffffff82169050919050565b6000819050919050565b82818337600083830152505050565b60005b83811015612554578082015181840152602081019050612539565b83811115612563576000848401525b50505050565b6000600282049050600182168061258157607f821691505b60208210811415612595576125946126a4565b5b50919050565b6125a482612702565b810181811067ffffffffffffffff821117156125c3576125c26126d3565b5b80604052505050565b60006125d78261251d565b91507fffffffffffffffffffffffffffffffffffffffffffffffffffffffffffffffff82141561260a57612609612646565b5b600182019050919050565b60006126208261251d565b915061262b8361251d565b92508261263b5761263a612675565b5b828206905092915050565b7f4e487b7100000000000000000000000000000000000000000000000000000000600052601160045260246000fd5b7f4e487b7100000000000000000000000000000000000000000000000000000000600052601260045260246000fd5b7f4e487b7100000000000000000000000000000000000000000000000000000000600052602260045260246000fd5b7f4e487b7100000000000000000000000000000000000000000000000000000000600052604160045260246000fd5b6000601f19601f8301169050919050565b7f416c6c2074686520746f6b656e732068617665206265656e206d696e7465642e600082015250565b7f4552433732313a207472616e7366657220746f206e6f6e20455243373231526560008201527f63656976657220696d706c656d656e7465720000000000000000000000000000602082015250565b7f4552433732313a207472616e736665722066726f6d20696e636f72726563742060008201527f6f776e6572000000000000000000000000000000000000000000000000000000602082015250565b7f4552433732313a20746f6b656e20616c7265616479206d696e74656400000000600082015250565b7f4552433732313a207472616e7366657220746f20746865207a65726f2061646460008201527f7265737300000000000000000000000000000000000000000000000000000000602082015250565b7f4552433732313a20617070726f766520746f2063616c6c657200000000000000600082015250565b7f4552433732313a2061646472657373207a65726f206973206e6f74206120766160008201527f6c6964206f776e65720000000000000000000000000000000000000000000000602082015250565b7f45524337323155524953746f726167653a2055524920736574206f66206e6f6e60008201527f6578697374656e7420746f6b656e000000000000000000000000000000000000602082015250565b7f4552433732313a20617070726f76652063616c6c6572206973206e6f7420746f60008201527f6b656e206f776e6572206e6f7220617070726f76656420666f7220616c6c0000602082015250565b7f4552433732313a206d696e7420746f20746865207a65726f2061646472657373600082015250565b7f4552433732313a20696e76616c696420746f6b656e2049440000000000000000600082015250565b7f4552433732313a20617070726f76616c20746f2063757272656e74206f776e6560008201527f7200000000000000000000000000000000000000000000000000000000000000602082015250565b7f4552433732313a2063616c6c6572206973206e6f7420746f6b656e206f776e6560008201527f72206e6f7220617070726f766564000000000000000000000000000000000000602082015250565b612a61816124b3565b8114612a6c57600080fd5b50565b612a78816124c5565b8114612a8357600080fd5b50565b612a8f816124d1565b8114612a9a57600080fd5b50565b612aa68161251d565b8114612ab157600080fd5b5056fe416e204e465420772f20494420257320686173206265656e206d696e74656420746f202573697066733a2f2f516d57417065726b6d756e4e6a453852446f726d45367956593831476938476e6675797059744c72514c6b504a67a26469706673582212202cfe67c9980dcaa63c5b8361e8035e4e5a0b33b84d7d41a742589880c35eff1764736f6c63430008010033",
  "linkReferences": {},
  "deployedLinkReferences": {}
}