{
  "_format": "hh-sol-artifact-1",
  "contractName": "SimpleAuction",
  "sourceName": "contracts/AuctionContract.sol",
  "abi": [
    {
      "inputs": [
        {
          "internalType": "uint256",
          "name": "biddingTime",
          "type": "uint256"
        },
        {
          "internalType": "address payable",
          "name": "beneficiaryAddress",
          "type": "address"
        }
      ],
      "stateMutability": "nonpayable",
      "type": "constructor"
    },
    {
      "inputs": [],
      "name": "AuctionAlreadyEnded",
      "type": "error"
    },
    {
      "inputs": [],
      "name": "AuctionEndAlreadyCalled",
      "type": "error"
    },
    {
      "inputs": [],
      "name": "AuctionNotYetEnded",
      "type": "error"
    },
    {
      "inputs": [
        {
          "internalType": "uint256",
          "name": "highestBid",
          "type": "uint256"
        }
      ],
      "name": "BidNotHighEnough",
      "type": "error"
    },
    {
      "anonymous": false,
      "inputs": [
        {
          "indexed": false,
          "internalType": "address",
          "name": "winner",
          "type": "address"
        },
        {
          "indexed": false,
          "internalType": "uint256",
          "name": "amount",
          "type": "uint256"
        }
      ],
      "name": "AuctionEnded",
      "type": "event"
    },
    {
      "anonymous": false,
      "inputs": [
        {
          "indexed": false,
          "internalType": "address",
          "name": "bidder",
          "type": "address"
        },
        {
          "indexed": false,
          "internalType": "uint256",
          "name": "amount",
          "type": "uint256"
        }
      ],
      "name": "HighestBidIncreased",
      "type": "event"
    },
    {
      "inputs": [
        {
          "internalType": "address",
          "name": "_nftContractAddress",
          "type": "address"
        },
        {
          "internalType": "uint256",
          "name": "_tokenId",
          "type": "uint256"
        }
      ],
      "name": "auctionEnd",
      "outputs": [],
      "stateMutability": "nonpayable",
      "type": "function"
    },
    {
      "inputs": [],
      "name": "auctionEndTime",
      "outputs": [
        {
          "internalType": "uint256",
          "name": "",
          "type": "uint256"
        }
      ],
      "stateMutability": "view",
      "type": "function"
    },
    {
      "inputs": [],
      "name": "beneficiary",
      "outputs": [
        {
          "internalType": "address payable",
          "name": "",
          "type": "address"
        }
      ],
      "stateMutability": "view",
      "type": "function"
    },
    {
      "inputs": [],
      "name": "bid",
      "outputs": [],
      "stateMutability": "payable",
      "type": "function"
    },
    {
      "inputs": [],
      "name": "highestBid",
      "outputs": [
        {
          "internalType": "uint256",
          "name": "",
          "type": "uint256"
        }
      ],
      "stateMutability": "view",
      "type": "function"
    },
    {
      "inputs": [],
      "name": "highestBidder",
      "outputs": [
        {
          "internalType": "address",
          "name": "",
          "type": "address"
        }
      ],
      "stateMutability": "view",
      "type": "function"
    },
    {
      "inputs": [
        {
          "internalType": "address",
          "name": "_nftContractAddress",
          "type": "address"
        },
        {
          "internalType": "uint256",
          "name": "_tokenId",
          "type": "uint256"
        }
      ],
      "name": "transferNftToAuctionContract",
      "outputs": [],
      "stateMutability": "nonpayable",
      "type": "function"
    },
    {
      "inputs": [],
      "name": "withdraw",
      "outputs": [
        {
          "internalType": "bool",
          "name": "",
          "type": "bool"
        }
      ],
      "stateMutability": "nonpayable",
      "type": "function"
    }
  ],
  "bytecode": "0x60806040523480156200001157600080fd5b5060405162000f1038038062000f108339818101604052810190620000379190620000c1565b806000806101000a81548173ffffffffffffffffffffffffffffffffffffffff021916908373ffffffffffffffffffffffffffffffffffffffff160217905550814262000085919062000102565b600181905550505062000200565b600081519050620000a481620001cc565b92915050565b600081519050620000bb81620001e6565b92915050565b60008060408385031215620000d557600080fd5b6000620000e585828601620000aa565b9250506020620000f88582860162000093565b9150509250929050565b60006200010f8262000193565b91506200011c8362000193565b9250827fffffffffffffffffffffffffffffffffffffffffffffffffffffffffffffffff038211156200015457620001536200019d565b5b828201905092915050565b60006200016c8262000173565b9050919050565b600073ffffffffffffffffffffffffffffffffffffffff82169050919050565b6000819050919050565b7f4e487b7100000000000000000000000000000000000000000000000000000000600052601160045260246000fd5b620001d7816200015f565b8114620001e357600080fd5b50565b620001f18162000193565b8114620001fd57600080fd5b50565b610d0080620002106000396000f3fe60806040526004361061007b5760003560e01c80633ccfd60b1161004e5780633ccfd60b146101075780634b449cba1461013257806391f901571461015d578063d57bde79146101885761007b565b80630a516814146100805780631998aeef146100a95780631dcf249f146100b357806338af3eed146100dc575b600080fd5b34801561008c57600080fd5b506100a760048036038101906100a29190610980565b6101b3565b005b6100b1610419565b005b3480156100bf57600080fd5b506100da60048036038101906100d59190610980565b6105a5565b005b3480156100e857600080fd5b506100f161079e565b6040516100fe9190610a45565b60405180910390f35b34801561011357600080fd5b5061011c6107c2565b6040516101299190610af7565b60405180910390f35b34801561013e57600080fd5b506101476108e6565b6040516101549190610b32565b60405180910390f35b34801561016957600080fd5b506101726108ec565b60405161017f9190610a2a565b60405180910390f35b34801561019457600080fd5b5061019d610912565b6040516101aa9190610b32565b60405180910390f35b60008054906101000a900473ffffffffffffffffffffffffffffffffffffffff1673ffffffffffffffffffffffffffffffffffffffff168273ffffffffffffffffffffffffffffffffffffffff16636352211e836040518263ffffffff1660e01b81526004016102239190610b32565b60206040518083038186803b15801561023b57600080fd5b505afa15801561024f573d6000803e3d6000fd5b505050506040513d601f19601f820116820180604052508101906102739190610957565b73ffffffffffffffffffffffffffffffffffffffff161415610415578173ffffffffffffffffffffffffffffffffffffffff166323b872dd60008054906101000a900473ffffffffffffffffffffffffffffffffffffffff1630846040518463ffffffff1660e01b81526004016102ec93929190610a60565b600060405180830381600087803b15801561030657600080fd5b505af115801561031a573d6000803e3d6000fd5b505050503073ffffffffffffffffffffffffffffffffffffffff168273ffffffffffffffffffffffffffffffffffffffff16636352211e836040518263ffffffff1660e01b815260040161036e9190610b32565b60206040518083038186803b15801561038657600080fd5b505afa15801561039a573d6000803e3d6000fd5b505050506040513d601f19601f820116820180604052508101906103be9190610957565b73ffffffffffffffffffffffffffffffffffffffff1614610414576040517f08c379a000000000000000000000000000000000000000000000000000000000815260040161040b90610b12565b60405180910390fd5b5b5050565b600154421115610455576040517fd02e774d00000000000000000000000000000000000000000000000000000000815260040160405180910390fd5b600354341161049d576003546040517f4e12c1bb0000000000000000000000000000000000000000000000000000000081526004016104949190610b32565b60405180910390fd5b6000600354146105225760035460046000600260009054906101000a900473ffffffffffffffffffffffffffffffffffffffff1673ffffffffffffffffffffffffffffffffffffffff1673ffffffffffffffffffffffffffffffffffffffff168152602001908152602001600020600082825461051a9190610b5e565b925050819055505b33600260006101000a81548173ffffffffffffffffffffffffffffffffffffffff021916908373ffffffffffffffffffffffffffffffffffffffff160217905550346003819055507ff4757a49b326036464bec6fe419a4ae38c8a02ce3e68bf0809674f6aab8ad300333460405161059b929190610ace565b60405180910390a1565b6001544210156105e1576040517f44cee29000000000000000000000000000000000000000000000000000000000815260040160405180910390fd5b600560009054906101000a900460ff1615610628576040517f61cfdcf800000000000000000000000000000000000000000000000000000000815260040160405180910390fd5b6001600560006101000a81548160ff0219169083151502179055507fdaec4582d5d9595688c8c98545fdd1c696d41c6aeaeb636737e84ed2f5c00eda600260009054906101000a900473ffffffffffffffffffffffffffffffffffffffff16600354604051610698929190610ace565b60405180910390a160008054906101000a900473ffffffffffffffffffffffffffffffffffffffff1673ffffffffffffffffffffffffffffffffffffffff166108fc6003549081150290604051600060405180830381858888f19350505050158015610708573d6000803e3d6000fd5b508173ffffffffffffffffffffffffffffffffffffffff166323b872dd30600260009054906101000a900473ffffffffffffffffffffffffffffffffffffffff16846040518463ffffffff1660e01b815260040161076893929190610a97565b600060405180830381600087803b15801561078257600080fd5b505af1158015610796573d6000803e3d6000fd5b505050505050565b60008054906101000a900473ffffffffffffffffffffffffffffffffffffffff1681565b600080600460003373ffffffffffffffffffffffffffffffffffffffff1673ffffffffffffffffffffffffffffffffffffffff16815260200190815260200160002054905060008111156108dd576000600460003373ffffffffffffffffffffffffffffffffffffffff1673ffffffffffffffffffffffffffffffffffffffff168152602001908152602001600020819055503373ffffffffffffffffffffffffffffffffffffffff166108fc829081150290604051600060405180830381858888f193505050506108dc5780600460003373ffffffffffffffffffffffffffffffffffffffff1673ffffffffffffffffffffffffffffffffffffffff1681526020019081526020016000208190555060009150506108e3565b5b60019150505b90565b60015481565b600260009054906101000a900473ffffffffffffffffffffffffffffffffffffffff1681565b60035481565b60008135905061092781610c9c565b92915050565b60008151905061093c81610c9c565b92915050565b60008135905061095181610cb3565b92915050565b60006020828403121561096957600080fd5b60006109778482850161092d565b91505092915050565b6000806040838503121561099357600080fd5b60006109a185828601610918565b92505060206109b285828601610942565b9150509250929050565b6109c581610c0e565b82525050565b6109d481610bc6565b82525050565b6109e381610bb4565b82525050565b6109f281610bd8565b82525050565b6000610a05601383610b4d565b9150610a1082610c73565b602082019050919050565b610a2481610c04565b82525050565b6000602082019050610a3f60008301846109da565b92915050565b6000602082019050610a5a60008301846109cb565b92915050565b6000606082019050610a7560008301866109bc565b610a8260208301856109da565b610a8f6040830184610a1b565b949350505050565b6000606082019050610aac60008301866109da565b610ab960208301856109da565b610ac66040830184610a1b565b949350505050565b6000604082019050610ae360008301856109da565b610af06020830184610a1b565b9392505050565b6000602082019050610b0c60008301846109e9565b92915050565b60006020820190508181036000830152610b2b816109f8565b9050919050565b6000602082019050610b476000830184610a1b565b92915050565b600082825260208201905092915050565b6000610b6982610c04565b9150610b7483610c04565b9250827fffffffffffffffffffffffffffffffffffffffffffffffffffffffffffffffff03821115610ba957610ba8610c44565b5b828201905092915050565b6000610bbf82610be4565b9050919050565b6000610bd182610be4565b9050919050565b60008115159050919050565b600073ffffffffffffffffffffffffffffffffffffffff82169050919050565b6000819050919050565b6000610c1982610c20565b9050919050565b6000610c2b82610c32565b9050919050565b6000610c3d82610be4565b9050919050565b7f4e487b7100000000000000000000000000000000000000000000000000000000600052601160045260246000fd5b7f6e6674207472616e73666572206661696c656400000000000000000000000000600082015250565b610ca581610bb4565b8114610cb057600080fd5b50565b610cbc81610c04565b8114610cc757600080fd5b5056fea2646970667358221220ab7bad72c77f898aed390a747855909d9c5c9f4a8763f4b6b0fc4121e86a29e664736f6c63430008040033",
  "linkReferences": {},
  "deployedLinkReferences": {}
}